:0400000080310E2815
:100008007E1480314E01961A8C1E0C288331A02351
:100018007E10090080311028410184311724803175
:10002800EC00843118248031ED0055308400833091
:10003800850020308600013087001E308331F3238D
:1000480080314001EE01EF01A030840000308500CE
:100058004A308331F9237E1040018231E72A40017A
:10006800E300A0308600003087004A30840000306A
:1000780085001830C60016001A00C60B3F28630812
:100088008331332380314001C6004608E20062080C
:10009800031DC5284A30C6004608F6001830C700B8
:1000A8004708F7006308C8004808F800883082311C
:1000B800392280314001C9004908E2006208031D65
:1000C800C5286308093E860087014A08C03F4B08D7
:1000D800C13F63080B3E860087014C08C03F4D08AE
:1000E800C13F63080D3E860087014E08C03F4F0898
:1000F800C13F63080F3E860087015008C03F510882
:10010800C13F6308113E860087015208C03F53086B
:10011800C13F6308133E860087015408C03F550855
:10012800C13F6308153E860087015608C03F57083F
:10013800C13F6308173E860087015808C03F590829
:10014800C13F6308193E860087015A08C03F5B0813
:10015800C13F63081B3E860087015C08C03F5D08FD
:10016800C13F63081D3E860087015E08C03F5F08E7
:10017800C13F63081F3E860087016008C03F6108D1
:10018800C13F620808004001B00005307902031C35
:10019800D1280430A0002008F9007A0883313323DD
:1001A80080314001A0002008AF002F08031D562908
:1001B80030080319562978080319562979080319AC
:1001C80051297808860087010108A0002008A400AA
:1001D8007A08023E860087010108031D0E29AE0138
:1001E80079082E0203180E292E083007A0002008CF
:1001F8008600870101087F39A1002E083007A20078
:10020800220886008701210881000130A00020080B
:10021800AE07F42802307902031C2E292430A000EE
:100228002008F0007808A1002108F1007908A20050
:100238002208F20030088231BA2280317908400160
:10024800A000A101A035A10D2008FF3EAC00FF30A1
:10025800213D34297908A000A1012008AC0021081B
:10026800AD00F0013008860087010108A0002008D1
:10027800F1002430A1002108F2002C08A200220875
:10028800F3008331CF2380314001A3002308AF005E
:100298002F0803195829FC305229FD30A0002008E6
:1002A800AF005829AF01AF032F0808004001E9004B
:1002B8000530E4006408E70069088331332381319D
:1002C8004001E4006408E80068080319BE29E4292D
:1002D8006908E4006408F600F701F70A6908E50010
:1002E8006508F800D0308231392281314001E600BA
:1002F8006608E8006808031DAA29690886008701BE
:100308005630010603199629690886008701573077
:1003180001060319962969088600870158300106E5
:10032800031DAA29690882317F2281314001E40036
:100338006408E8006808031DC12969088031332072
:1003480081314001E4006408E800C1290030F3006D
:100358000030F2000030F1000A30F0006908073E72
:1003680086008701413F8A00403F0A008131013001
:100378004001E7026708031D6C296708031DC829A7
:10038800FE30E4006408E8006808031DE4296908F1
:10039800283E8600870181016908263E860087017C
:1003A80081016908253E8600870181016908273E89
:1003B8008600870181016908293E8600870181013D
:1003C800680808005330890BE72900000030400115
:1003D800C1000030C0000030BF000030BE00203037
:1003E80086000130870020308400003085001E30F0
:1003F800F40016001A00F40BFD2971088038F40087
:100408007408A000C2017308013EF400003003180C
:100418000130F5007508803A803C031D152A7408E0
:10042800420203181D2A0130F40074084001C20773
:10043800072A4001C301730843020318372A4308F7
:10044800013E203E860087010108F4004308720738
:10045800F500750886008701740881000130F400F2
:100468007408C3071F2A3E0808004001C400780822
:10047800833133238231F90079084001C5004508EA
:10048800031D7B2A760803197B2A7808023E86001A
:1004980087010108031D552A44088038F9007908A6
:1004A800C400780886008701413FF0004408F9003D
:1004B8007908F1007608FA007A08F2007708FB005C
:1004C8007B08F3007808033E86008701413F8A00D5
:1004D800403F0A008231FC007C084001C500450805
:1004E80003197D2AFC30F9007908C5007D2AC50169
:1004F800C503450808004001B400E030FB007B0854
:10050800B300B630FB007B08B100340883313323D5
:100518008231FB007B084001B2003208031DB72A74
:100528003130FB007B08F800F901F90A3408FC00B7
:100538007C08FA0033308031C7208231FD007D0805
:100548004001B2000030F3000030F2000030F1004A
:100558000230F0003408073E86008701413F8A00D8
:10056800403F0A008231400132080800F600F701D6
:10057800F70A720877020318080077087607F3006D
:100588007308860087010108F4007735FF3E70077D
:10059800F5007508860087017408810077087107DF
:1005A800F3007308860087010108F40077357007A7
:1005B800F500750886008701740881000130F30092
:1005C8007308F707BD2A83318E2382318B170D30CC
:1005D800F0000430F1008331FF2382318431142488
:1005E80082314101C101C201E630C3000130C400BB
:1005F800CF30C5000330C6001930C7000430C8002A
:10060800C03081315A2182314001EA006A08EB008A
:100618000C2B400198019A01333092000A30940063
:1006280004307E01CE001B30B800B901CF01BA01F9
:10063800D0011530A0007D014508C0391038C5002B
:100648004608C0391138C6000F307E01A4001630A4
:10065800A2007D014B08C0391338CB000800F30015
:10066800730803194F2B7308033E86008701160091
:10067800010403194F2B7308053E860087011600F5
:10068800010403194F2B7308073E860087011600E3
:100698000104031D522BF201F203532BF2017208DD
:1006A8000800FF34003400340034003400340034CF
:1006B8000034003400340034003400340034003492
:1006C8000034003400340034003400340034003482
:1006D8000034003400340034003400340034503026
:1006E8004B019F009E309D0058309C001D08400122
:1006F800ED004B011C084001EC004E018C129616CF
:100708001A30F0000430F1008331FF2390304B01A0
:100718009E0008008331E323833183310D23833125
:100728008331D92383318331EB238331833173239D
:1007380083318331B92308004E018C1240016D08C2
:100748004B019D0040016C084B019C008331C42380
:10075800080000340034B934033400340034003461
:1007680000340034003400340034083042019F0063
:1007780090309D0024309E0015309B009C0108009D
:1007880041016A086B04031908006B088A006A08AB
:100798000A00833108000030F7000030F60000300E
:1007A800F5000030F40074080800623051018D0033
:1007B8008F019101023093009001920108004F01CE
:1007C80096019701980199019A019B01080001304F
:1007D80041019D009E019F019B019C010800FE00B4
:1007E80012001E00FE0BF42B00346400800101315E
:1007F800890BFA2B003471084101EB007008EA00FC
:100808000800D034073400340034E83403340034AA
:100818000034203040018E060800103400340134C2
:0E0828004B019E170800F434F5340800080058
:020000040001F9
:0A000E00EC3FFF3F9F3FFF3FFF3F25
:00000001FF
