:0400000080310E2815
:100008007E1480314E01961A8C1E0C289631AF262C
:100018007E10090080311028293084009630850030
:1000280069308600013087000430963139268031E6
:10003800CB3084009630850020308600023087005F
:100048001E30963139268031E601E701E801E901E1
:10005800EA01EB014101DA01DB01DC01DD014201CA
:10006800ED01EE01A0308400013085004230963168
:1000780033267E1040018C31AB2C00304001C40087
:100088000030C3000030C2000030C100240897319E
:10009800082780314001A5002508B8003808031D4D
:1000A800062C2408213E860001308700403FA50029
:1000B800413FA600423FA700433FA8000130A900E6
:1000C800A837A70CA60CA50CA90B64280030250797
:1000D800C5000630263DC600FF30273DC700FF306B
:1000E800283DC8004508A5004608A6004708A700FF
:1000F8004808A8000230A900A837A70CA60CA50C30
:10010800A90B80282808F7002708F6002608F5001C
:100118002508F4004508AA004608AB004708AC00CB
:100128004808AD000230AE00AD37AC0CAB0CAA0CE1
:10013800AE0B98282D08F3002C08F2002B08F100CC
:100148002A08F0009731A127803170084001AF00DC
:100158007108B0007208B1007308B2000B30B30028
:10016800B237B10CB00CAF0CB30BB4283208BC00DA
:100178003108BB003008BA002F08B9003C08F3006A
:100188003B08F2003A08F1003908F0002408193E4B
:10019800860001308700403FA500413FA6002508A2
:1001A800F4002608F500890D893B8909F600F70057
:1001B8009731A127803173084001C0007208BF0041
:1001C8007108BE007008BD003D08A5003E08A600E5
:1001D8003F08A7004008A8002408173E8600013001
:1001E8008700403FA900413FAA002908F0002A08DB
:1001F800F100890D893B8909F200F3004808F700EE
:100208004708F6004608F5004508F4009731A1278D
:10021800803170084001AB007108AC007208AD0075
:100228007308AE000130AB35AC0DAD0DAE0D890BCA
:1002380017292B08A5072C08A63D2D08A73D2E0831
:10024800A83D2808C0002708BF002608BE002508CA
:10025800BD002408153E860001308700403FA500F8
:10026800413FA6002508A7002608A800A901AA0161
:100278001030A735A80DA90DAA0D890B3D293D08F9
:10028800AB003E08AC003F08AD004008AE000230AD
:10029800AF00AE37AD0CAC0CAB0CAF0B4D292B0837
:1002A800A7072C08A83D2D08A93D2E08AA3D2A0815
:1002B800C0002908BF002808BE002708BD0045085F
:1002C800A5004608A6004708A7004808A80002306D
:1002D800A900A837A70CA60CA50CA90B6D292808FE
:1002E800F7002708F6002608F5002508F400450859
:1002F800AA004608AB004708AC004808AD00023029
:10030800AE00AD37AC0CAB0CAA0CAE0B85292D0892
:10031800F3002C08F2002B08F1002A08F0009731AE
:10032800A127803170084001AF007108B000720841
:10033800B1007308B2000D30B300B237B10CB00C85
:10034800AF0CB30BA1293208BC003108BB00300840
:10035800BA002F08B9002408113E86000130870032
:10036800403FA500413FA6002508F0002608F100FF
:10037800890D893B8909F200F3004808F70047080E
:10038800F6004608F5004508F4009731A1278031AA
:1003980070084001A7007108A8007208A900730836
:1003A800AA000130AB00AA37A90CA80CA70CAB0B0C
:1003B800D7292408133E860001308700403FAC004F
:1003C800413FAD002C08F0002D08F100890D893B54
:1003D8008909F200F3003C08F7003B08F6003A08E8
:1003E800F5003908F4009731A127803170084001E1
:1003F800AE007108AF007208B0007308B100033096
:10040800B200B137B00CAF0CAE0CB20B052A2E08F7
:10041800A7072F08A83D3008A93D3108AA3D12308A
:10042800B300AA37A90CA80CA70CB30B152A2A08E5
:10043800C8002908C7002808C6002708C5000030DA
:100448004507F0008030463DF1000030473DF2009E
:100458000030483DF30024080F3E86000130870035
:10046800403FA500413FA6002508F4002608F500F6
:10047800F601F7019731A127803170084001A700E4
:100488007108A8007208A9007308AA000F30AB0011
:10049800AA37A90CA80CA70CAB0B4C2A2A08C80031
:1004A8002908C7002808C6002708C5002008A50095
:1004B8002108A6002208A7002308A8003D08A900D3
:1004C8003E08AA003F08AB004008AC000C30AD0065
:1004D800AC37AB0CAA0CA90CAD0B6C2A2908A507E4
:1004E8002A08A63D2B08A73D2C08A83DA509A60962
:1004F800A709A809A50A0319A60A0319A70A03192F
:10050800A80A00302507F0000030263DF100103021
:10051800273DF2000030283DF3000030F70000309E
:10052800F6000C30F5003530F4009731A127803102
:1005380073084001C4007208C3007108C200700843
:10054800C10048084704460445040319FE2B8030BF
:1005580044020318CC2A4808F3004708F20046086A
:10056800F1004508F0004135F400420DF500430D57
:10057800F600440DF7008831E5208031730840010A
:10058800C4007208C3007108C2007008C100E82ADC
:100598004808F3004708F2004608F1004508F00053
:1005A8004408F7004308F6004208F5004108F40043
:1005B8008831E520803170354001C100710DC200DD
:1005C800720DC300730DC4004108A5004208A600BF
:1005D8004308A7004408A8000330A836A70CA60CB7
:1005E800A50C890BF12A2808F7002708F600260829
:1005F800F5002508F4004108A9004208AA004308AC
:10060800AB004408AC000330AC36AB0CAA0CA90C08
:10061800890B082B2C08F3002B08F2002A08F1009C
:100628002908F0009731A127803170084001AD00FA
:100638007108AE007208AF007308B0000D30B03614
:10064800AF0CAE0CAD0C890B232B3008BC002F0867
:10065800BB002E08BA002D08B90024081F3E8600EA
:1006680001308700403FA500413FA6002508F00063
:100678002608F100890D893B8909F200F3003C083E
:10068800F7003B08F6003A08F5003908F4009731FE
:10069800A127803170084001A7007108A8007208DE
:1006A800A9007308AA000C30AB00AA37A90CA80C43
:1006B800A70CAB0B592B2A08C8002908C700280823
:1006C800C6002708C5004108A5004208A60043083F
:1006D800A7004408A8000230A836A70CA60CA50C51
:1006E800890B702B2808F3002708F2002608F10070
:1006F8002508F00024081D3E860001308700403F91
:10070800A900413FAA002908F4002A08F500890D2C
:10071800893B8909F600F7009731A12780317008D5
:100728004001AB007108AC007208AD007308AE0060
:100738000D30AF00AE37AD0CAC0CAB0CAF0B9E2B35
:100748002E08C0002D08BF002C08BE002B08BD00D5
:100758004108A5004208A6004308A7004408A800CD
:100768003D08A9003E08AA003F08AB004008AC00BD
:100778004508AD004608AE004708AF004808B0007D
:1007880024081B3E860001308700403FB100413FEE
:10079800B2003108B3003208B4000030B41BFF3097
:1007A800B500B6003308AD073408AE3D3508AF3D97
:1007B8003608B03D2D08A9072E08AA3D2F08AB3DE5
:1007C8003008AC3D0430B700AC37AB0CAA0CA90C10
:1007D800B70BE82B2908A5072A08A63D2B08A73D33
:1007E8002C08A83D2808C4002708C3002608C20012
:1007F8002508052C0030C4000030C3000030C200BA
:100808000030C1004408A3004308A2004208A10028
:100818004108A000080000304001CC000030CB00A7
:100828000030CA000030C9002408973108278431F5
:100838004001A5002508CD004D08031DA42D24085E
:10084800093E860001308700403FA500413FA600D1
:100858002508A7002608A800A901AA010130A73584
:10086800A80DA90DAA0D890B332CA709A809A90958
:10087800AA09A70A0319A80A0319A90A0319AA0A9F
:100888002008AB002108AC002208AD002308AE0008
:100898000330AE36AD0CAC0CAB0C890B4D2C2B08D1
:1008A800A7072C08A83D2D08A93D2E08AA3D2A080F
:1008B800F3002908F2002808F1002708F0002408AE
:1008C8000B3E860001308700403FAF00413FB0003B
:1008D8002F08F4003008F500890D893B8909F600D6
:1008E800F7009731A127843170084001B1007108E1
:1008F800B2007208B3007308B4000B30B436B30CFE
:10090800B20CB10C890B822C3408C0003308BF002C
:100918003208BE003108BD002408093E86000130B7
:100928008700403FA500413FA6002508A7002608EC
:10093800A800A901AA01A709A809A909AA09A70A3B
:100948000319A80A0319A90A0319AA0A2008AB005F
:100958002108AC002208AD002308AE000430AE36F2
:10096800AD0CAC0CAB0C890BB32C2B08A7072C08CF
:10097800A83D2D08A93D2E08AA3D2A08F7002908F8
:10098800F6002808F5002708F4002408093E860028
:1009980001308700403FAF00413FB0002F08B10051
:1009A8003008B200B301B401B109B209B309B409FE
:1009B800B10A0319B20A0319B30A0319B40A2008C1
:1009C800B5002108B6002208B7002308B800043093
:1009D800B836B70CB60CB50C890BEC2C3508B1073A
:1009E8003608B23D3708B33D3808B43D3408F30043
:1009F8003308F2003208F1003108F0009731A127DE
:100A0800843170084001B9007108BA007208BB004F
:100A18007308BC000C30BC36BB0CBA0CB90C890B83
:100A28000F2D3C08C8003B08C7003A08C600390823
:100A3800C5004808F3004708F2004608F1004508D9
:100A4800F00024080D3E860001308700403FA500D5
:100A5800413FA6002508F4002608F500890D893BCA
:100A68008909F600F7009731A12784317008400101
:100A7800A7007108A8007208A9007308AA000E3020
:100A8800AA36A90CA80CA70C890B442D2A08C40067
:100A98002908C3002808C2002708C1003D084107EB
:100AA800A5003E08423DA6003F08433DA700400878
:100AB800443DA8002408213E86000130870025080F
:100AC800C03F2608C13F2708C23F2808C33F8030DF
:100AD800A5000030A6000030A7000030A8002408B8
:100AE800213E860001308700403FF000413FF10081
:100AF800423FF200433FF3000030F7000030F600B9
:100B08000030F5000530F4009731A12784317008D2
:100B18004001A5077108A63D7208A73D7308A83DC6
:100B28000830A900A837A70CA60CA50CA90B962D70
:100B38002808CC002708CB002608CA002508C900C9
:100B48004C08A3004B08A2004A08A1004908A000CD
:100B58000800B8308E31DE2685314001E00060089B
:100B68004101A100B8304001E0006008CA00AA3085
:100B780087312F2785314001E10061084101A0003C
:100B88002D084001A30041012C084001A2004101A9
:100B98002B084001A10041012A084001A000B830FB
:100BA800E0006008A40084310F2485314001230847
:100BB8004101A500400122084101A400400121088B
:100BC8004101A300400120084101A2000430AA3ECF
:100BD80086008701403F4001A000413FA100423FFD
:100BE800A200433FA300B830E0006008A4008031B1
:100BF80041208531400123084101A9004001220814
:100C08004101A800400121084101A7004001200836
:100C18004101A60042304001E0006008F000963132
:100C28003F2685310D304001E000FB30890B1A2E3C
:100C3800E00B1A2E003243304001E0006008F0005B
:100C480096313F2685310D304001E000FB30890B9D
:100C58002B2EE00B2B2E0032410122084001E00030
:100C68006008F00096313F2685310D304001E000E4
:100C7800FB30890B3D2EE00B3D2E0032410122084E
:100C88004001E000410123084001E100410124083E
:100C98004001E200410125084001E3000830E4007A
:100CA800E337E20CE10CE00CE40B542E6008E5009D
:100CB8006508F00096313F2685310D304001E0008F
:100CC800FB30890B652EE00B652E003241012208AE
:100CD8004001E000410123084001E10041012408EE
:100CE8004001E200410125084001E3001030E40022
:100CF800E337E20CE10CE00CE40B7C2E6008E50025
:100D08006508F00096313F2685310D304001E0003E
:100D1800FB30890B8D2EE00B8D2E0032410122080D
:100D28004001E000410123084001E100410124089D
:100D38004001E200410125084001E3001830E400C9
:100D4800E337E20CE10CE00CE40BA42E6008E500AC
:100D58006508F00096313F2685314101260840019B
:100D6800E0006008F00096313F2685310D304001E3
:100D7800E000FB30890BBE2EE00BBE2E0032410195
:100D880026084001E000410127084001E100410137
:100D980028084001E200410129084001E300083029
:100DA800E336E20CE10CE00C890BD42E6008E40079
:100DB8006408F00096313F2685310D304001E0008F
:100DC800FB30890BE52EE00BE52E003241012608A9
:100DD8004001E000410127084001E10041012808E5
:100DE8004001E200410129084001E3001030E336E8
:100DF800E20CE10CE00C890BFB2E6008E4006408AF
:100E0800F00096313F2685310D304001E000FB307F
:100E1800890B0C2FE00B0C2F0032410126084001F2
:100E2800E000410127084001E10041012808400194
:100E3800E200410129084001E3001830E336E20CE2
:100E4800E10CE00C890B222F6008E4006408F00034
:100E580096313F2608004001DF00663086000030EA
:100E6800870058308400003085000630CB0016001B
:100E78001A00CB0B3B2F4A089731082787314001CE
:100E8800CB004B08DE005E08031DDF2F5F08031947
:100E9800DF2F5830C4000030C5000630CB004B08A7
:100EA800C6004A08CC004C08C700F73088319A20A1
:100EB80087314001CD004D08DE005A08CB000430D0
:100EC800CB36890B642F4B08CC00CD01CE01CF0166
:100ED8005908D000D101D201D3010430D035D10D49
:100EE800D20DD30D890B722F5808D400D501D60125
:100EF800D7010C30D435D50DD60DD70D890B7E2FE3
:100F08005408D0045508D1045608D2045708D3040D
:100F18005008CC045108CD045208CE045308CF041D
:100F28005F08043E860087014C08C03F4D08C13F5A
:100F38004E08C23F4F08C33F5D08CB000430CB3694
:100F4800890BA32F4B08CC00CD01CE01CF015C0843
:100F5800D000D101D201D3010430D035D10DD20D4A
:100F6800D30D890BB12F5B08D400D501D601D70169
:100F78000C30D435D50DD60DD70D890BBD2F54089F
:100F8800D0045508D1045608D2045708D304500891
:100F9800CC045108CD045208CE045308CF045F088E
:100FA800860087014C08C03F4D08C13F4E08C23F2C
:100FB8004F08C33FE12FDE01DE035E080800410150
:100FC800B601B701321CEC2F3408B6073508B73D17
:100FD8000130B435B50D890BED2F0130B336B20CA5
:100FE800890BF22F32083304031DE62F3708B300AC
:100FF8003608B2000800080051304B019F003C3011
:101008009D00B0309C001D084101D9004B011C080F
:101018004101D8004E018C129616FF304101B200F2
:101028000730B30096312D2690304B019E00080002
:1010380000304101BD000030BC000030BB00003072
:10104800BA004001181141013408963182268831CE
:101058004101BE0137083E02031845283E08B80082
:10106800B9013808350786003908363D8700010878
:1010780096318226883101304101B8003808BE0710
:101088002E280D304101B800FB30890B4928B80BD8
:10109800492800324001181541013A080800420168
:1010A800A300E0304101D20052084201A200B6304C
:1010B8004101D20052084201A000230897312D2790
:1010C80088314101D20052084201A1002108031DC4
:1010D800972820304101D2005208BF00C001C00A41
:1010E800420123084101D3005308C10022308C314A
:1010F800132488314101D40054084201A100003072
:101108004101B5000030B4000030B3000230B20035
:1011180042012308073E860001308700413F8A00CC
:10112800403F0A0088314201210808004001C800F8
:101138004708973108278831FB007B084001C90020
:101148004908031DE128440845040319E128470814
:10115800023E8600013087000108031DB8284808B0
:101168008038FB007B08C8004708860001308700EC
:101178000130413FF1004808FB007B08F2004508B8
:10118800F4004408F3004608FC007C08F500470812
:10119800033E860001308700413F8A00403F0A0035
:1011A8008831FD007D084001C90049080319E3287A
:1011B800FC30FB007B08C900E328C901C9034908C2
:1011C80008000030FC000030FB000030FA0000305E
:1011D800F900730872047104700403192E29FD01C3
:1011E800FD0AF31B03290130F035F10DF20DF30D63
:1011F800890BF8280130F8007808FD07F528013038
:10120800F935FA0DFB0DFC0D890B042973087702DB
:10121800031D182972087602031D18297108750222
:10122800031D182970087402031C23297008F4028E
:101238007108F53B7208F63B7308F73B79140130E7
:10124800F336F20CF10CF00C890B24290130FD0265
:10125800031D03297C08F3007B08F2007A08F100DB
:101268007908F00008004101C000420147089731A1
:101278002D2789314101BD003D08C1004108031DEA
:101288008A2942014408450403198A294708023E6D
:101298008600013087000108031D582941014008D4
:1012A8008038BD003D08C000420147088600013073
:1012B80087000130413F4101B3004008BD003D08AF
:1012C800B400420145084101B60042014408410109
:1012D800B500420146084101BE003E08B700420180
:1012E8004708033E860001308700413F8A00403F9F
:1012F8000A0089314101BF003F08C10041080319B4
:101308008D29FC30BD003D08C1008D294101C10176
:10131800C103410808004101BC004301901A0800BC
:1013280041013C08B800B9013808B2003908B300D7
:101338000330B4000030B5008731E327893141011B
:101348003208013EBA000030333DBB000C303A078A
:10135800840098303B3D8500000843018F0041011F
:101368003C08B800B9013808B2003908B3000330A6
:10137800B4000030B5008731E327893141013308D3
:101388008500320884000C3084079830853D0008B9
:101398002A3843019000910141013C08B800B90185
:1013A8003808B2003908B3000330B4000030B50083
:1013B8008731E32741013208023EBA000030333D4D
:1013C800BB000C303A07840098303B3D850000088C
:1013D80043018D00400114100800C8300032890B09
:1013E800F22900304001C1000030C0000030BF00C9
:1013F8000030BE0020308600023087002030840094
:10140800003085001E30F60016001A00F60B082A78
:1014180072088038F6007608A0001811C301750814
:10142800013EF600003003180130F7007708803AD3
:10143800803C031D212A760843020318392A4001FB
:101448004308203E860087010108963161268931CC
:10145800F60040014308203E860087017608810097
:101468000130F6007608C307132A0D30F600FC3069
:10147800890B3C2AF60B3C2A40011815C201750855
:1014880042020318622A4208013E203E8600870174
:101498000108F6004208F700F80177087307F90019
:1014A8007808743DFA00790886007A08870076087B
:1014B80081000130F6007608C207432A3E0808007A
:1014C8007E1C682A8931F129C8300032890B692AC3
:1014D80000304201C1000030C0000030BF000030C1
:1014E800BE002030860002308700203084000130A2
:1014F80085001E304101B80016001A00B80B802A7A
:1015080034088038B80038084201A000400118119A
:101518004201C30141013708013EB80000300318F9
:101528000130B9003908803A803C031D9E2A3808EA
:10153800420143020318BB2A42014308203E8600A9
:10154800013087000108963182268A314101B800AE
:1015580042014308203E86000130870041013808D7
:1015680081000130B80038084201C3078E2A0D30C7
:101578004101B800FB30890BBF2AB80BBF2A0032E3
:10158800400118154201C2014101370842014202D7
:101598000318EE2A4208013E203E860001308700EB
:1015A80001084101B800420142084101B900BA01ED
:1015B80039083507BB003A08363DBC003B088600B1
:1015C8003C088700380881000130B800380842011B
:1015D800C207C82A3E0808004101C9005D08C800C2
:1015E8005C08C700420897312D278A314101C300A2
:1015F8004308C6004608031D782B49080319782BB1
:10160800C7304201C4000030C50002304101C300A8
:1016180043084201C60041014208C400440842018F
:10162800C700F430893137218A314101C5004508A6
:10163800C6004608031D7A2B4708C3000530C33689
:10164800890B232B43080739C40049088600013059
:101658008700440881004708C3000230C336890B5D
:10166800322B43080739C400490A86000130870035
:10167800440881004808C3000530C336890B412B54
:1016880043080739C4004908023E86000130870034
:10169800440881004808C3000230C336890B512B27
:1016A80043080739C4004908033E86000130870013
:1016B8004408810048080139C3004908043E8600EF
:1016C80001308700430881004908860001308700FF
:1016D8004208253E8400013085000530C30016000D
:1016E8001A00C30B732B7A2BC601C60346080800E1
:1016F8004201E6000530E2006208E400660897311E
:101708002D278B314201E2006208E50065080319C4
:10171800E62B112C6608C4000130C500C601C60AB4
:101728006608E2006208C700D030893137218B3162
:101738004201E3006308E5006508031DCF2B660836
:10174800860001308700563001060319BB2B660856
:10175800860001308700573001060319BB2B660845
:1017680086000130870058300106031DCF2B66081C
:10177800883153208B314201E2006208E500650898
:10178800031DE92B66088D314F258B314201E2009C
:101798006208E500E92B00304101B5000030B400D3
:1017A8000030B3000A30B20042016608073E8600E6
:1017B80001308700413F8A00403F0A008B310130E9
:1017C8004201E4026408031D8E2B6408031DF02BFC
:1017D800FE30E2006208E5006508031D112C66086A
:1017E800283E86000130870081016608263E860073
:1017F8000130870081016608253E86000130870098
:1018080081016608273E860001308700810166084D
:10181800293E8600013087008101650808004101E2
:10182800D10005304002031C1D2C0430C2004208C0
:10183800C000410897312D278C314101C200420870
:10184800D0005008031DA72C51080319A72C3F08E6
:101858000319A72C40080319A22C3F088600013061
:1018680087000108C2004208C5004108023E860000
:10187800013087000108031D5E2CCF0140084F028C
:1018880003185E2C4F085107C20042088600013039
:10189800870001087F39C3004F085107C400440876
:1018A800860001308700430881000130C2004208E9
:1018B800CF07422C02304002031C7E2CC530C200E8
:1018C8004208B2003F08C3004308B3004008C40000
:1018D8004408B40051089731D0278C3141014008A1
:1018E800C200C301C235C30D4208FF3ECD00FF3020
:1018F800433D842C4008C200C3014208CD00430880
:10190800CE00B30151088600013087000108C200EB
:101918004208B400C530B5000030B6004D08C30019
:101928004308B70088311C208C314101C4004408A9
:10193800D00050080319A92CFC30A32CFD30C2009C
:101948004208D000A92CD001D003500808009631D5
:101958009D268C318B170B17AD304101B200053035
:10196800B30096312D268C31963126268C310030E5
:1019780089318F218C31400118150D304201E70063
:10198800FB30890BC52CE70BC52C003242016C08D3
:101998004301E30042016B084301E2004101B30146
:1019A800B401E230B5000130B60002304201E70070
:1019B80067084101B70088311C208C314301B90107
:1019C800BA016430BB000A30BC001C30BD000830CE
:1019D800BE007A30BF001730C000B8308B317C238E
:1019E8008C314201E70067084301E400B830420146
:1019F800E70067084101C200E5308A31F0228C31E6
:101A08004201E80068084301E400E801E80A0530FB
:101A18004201E70067084301E600E501E50AE7013E
:101A2800B8304201E7006708D400E53096318E26C9
:101A38008C314201E80068084301E400B8304201F3
:101A4800E70067084101C200E5308A31F0228C3195
:101A58004201E80068084301E400B8304201E700A9
:101A68006708D40003309631E9268C314201E8003A
:101A780068084301E400B8304201E7006708410103
:101A8800C200E5308A31F0228C314201E800680852
:101A98004301E4004E2D4201E100A03086000130F0
:101AA8008700483084000130850018304101C200A9
:101AB80016001A00C20B5C2D4201610897312D27D0
:101AC8008D314101C20042084201E0006008031D57
:101AD800F52D4830C4000130C50018304101C2005E
:101AE80042084201C60061084101C300430842019F
:101AF800C7008830893137218D314101C40044083D
:101B08004201E0006008031DF52D6108093E8600CA
:101B1800013087004808C03F4908C13F61080B3EB3
:101B28008600013087004A08C03F4B08C13F610862
:101B38000D3E8600013087004C08C03F4D08C13F6C
:101B480061080F3E8600013087004E08C03F4F08ED
:101B5800C13F6108113E8600013087005008C03F30
:101B68005108C13F6108133E8600013087005208C2
:101B7800C03F5308C13F6108153E86000130870009
:101B88005408C03F5508C13F6108173E8600013020
:101B980087005608C03F5708C13F6108193E8600B4
:101BA800013087005808C03F5908C13F61081B3EF3
:101BB8008600013087005A08C03F5B08C13F6108B2
:101BC8001D3E8600013087005C08C03F5D08C13FAC
:101BD80061081F3E8600013087005E08C03F5F082D
:101BE800C13F600808004201D0006E08D3006D08AC
:101BF800D2006A08CF006908CE00490897312D271E
:101C08008D314201CA004A08D1005108031DDA2E5D
:101C180048080319DA2E5230C4000130C5000230DA
:101C2800CA004A08C6004908CB004B08C700F43070
:101C3800893137218D314201CC004C08D10051083F
:101C4800031DDC2E4908883153208D314201CA001A
:101C58004A08D1005108031DDC2E480886000130CF
:101C680087000108CA000530CA35890B382EE030D4
:101C78004A05CB0052081F394B04CC004C08D2004F
:101C8800480A8600013087000108CA000230CA35B8
:101C9800890B4B2E1C304A05CB005208E3394B0404
:101CA800CC004C08D2004808023E8600013087006C
:101CB8000108CA000530CA35890B5F2EE0304A0595
:101CC800CB0053081F394B04CC004C08D3004808FC
:101CD800033E8600013087000108CA000230CA3579
:101CE800890B732E1C304A05CB005308E3394B048B
:101CF800CC004C08D3004808043E86000130870019
:101D080001300105CA005308FE394A04CB004B08CC
:101D1800D3005230CA004A084101BF0002304201D4
:101D2800CB004B084101C00042014908CC004C08D7
:101D38004101C1004E308C3113248D314201CD0058
:101D48004D08D1005108031DDC2E480886000130DB
:101D580087004908253E8400013085000530CA0007
:101D680016001A00CA0BB42E50080319DC2E0330D3
:101D78005005CA005208FC394A04CB004B08D2006F
:101D88005230CA004A084101BF00C001C00A4201DE
:101D98004908CB004B084101C1004E308C31132457
:101DA8008D314201CC004C08D100DC2ED101D10389
:101DB800510808004001C3000030C2000030C100D3
:101DC8000030C0000030BF000030B3000030B20067
:101DD8000030B1000030B0000030B7000030B6006D
:101DE8000030B5000030B4000030BB000030BA004D
:101DF8000030B9000030B8004308973108278E3109
:101E08004001A0002008BE003E08031DFE2F01303F
:101E1800A0000030A1000030A2000030A300430859
:101E2800253E860001308700010A1E2FA035A10D2E
:101E3800A20DA30D890B1A2F0130A336A20CA10CF9
:101E4800A00C890B212F2308F3002208F200210897
:101E5800F1002008F0001230840098308500003F1F
:101E6800F400013FF500023FF600033FF700973109
:101E7800A1278E3173084001B3007208B2007108BF
:101E8800B1007008B0000130A0000030A10000309F
:101E9800A2000030A3004308263E860001308700D8
:101EA800010A5A2FA035A10DA20DA30D890B562F9B
:101EB8000130A336A20CA10CA00C890B5D2F2308BE
:101EC800F3002208F2002108F1002008F000123087
:101ED800840098308500003FF400013FF500023F80
:101EE800F600033FF7009731A1278E3173084001B0
:101EF800B7007208B6007108B5007008B40043084E
:101F0800263E8600013087000108031D8E2FBC0184
:101F1800BD01922FF430BC000130BD003C08B80070
:101F28003D08B900890D893B8909BA00BB0034080E
:101F3800A0003508A1003608A2003708A300380819
:101F4800A4003908A5003A08A6003B08A7003008F5
:101F5800A8003108A9003208AA003308AB001630DF
:101F6800840098308500003FAC00013FAD00023F7F
:101F7800AE00033FAF002C08A8072D08A93D2E0886
:101F8800AA3D2F08AB3D2808A4072908A53D2A0823
:101F9800A63D2B08A73D2408A0072508A13D260833
:101FA800A23D2708A33DF4302007BF000130213DA2
:101FB800C0000030223DC1000030233DC200003087
:101FC800F3000030F2000330F100E830F00042087E
:101FD800F7004108F6004008F5003F08F400883192
:101FE800E52073084001C2007208C1007108C000F2
:081FF8007008BF003F0808005B
:102C4C004B019E170800F434F5346034B63441015E
:102C5C003308D7003208D600080064008001013127
:102C6C00890B342E0034FE0012001E00FE0B3A2E8F
:102C7C0000344E010F1E3F2E700842019A000800CE
:102C8C004F0196019701980199019A019B01080047
:102C9C00013041019D00E0309E009F019B019C0191
:102CAC000800603051018D008F01910102309300BA
:102CBC00900192010800F000700843018C004E0155
:102CCC000F1C652E0F1043010C080800410156081B
:102CDC0057040319080057088A0056080A00963151
:102CEC000800083042019F0090309D0024309E0067
:102CFC0008309B009C0108004101B20032084301DE
:102D0C008C004E010F1C872E0F1043010C0808007D
:102D1C004101D50055084201D5005508C80054089A
:102D2C00D6005608C90000308D31F72508009631C1
:102D3C004626963197315327963196315726963140
:102D4C0096314E2696318831002096319631772671
:102D5C0008004E018C12410159084B019D004101A4
:102D6C0058084B019C0001304101DA070030DB3D73
:102D7C0000305B020A3003195A02031C080096311A
:102D8C006C264101DA01DB010800FF340034003409
:102D9C000034003400340034003400340034003487
:102DAC000034003400340034003400340034003477
:102DBC000034003400340034003400340034003467
:102DCC000034003400344201D800540897312D27C8
:102DDC0096314201D5005508D9005908031D062F1C
:102DEC005408253ED5005508C8005408D60056088E
:102DFC00C90058088D31F7254201D7005708D90072
:102E0C0059080800F30073080319272F7308033EB1
:102E1C00860001308700160001040319272F730860
:102E2C00053E860001308700160001040319272F88
:102E3C007308073E86000130870016000104031D4D
:102E4C002A2FF201F2032B2FF20172080800410124
:102E5C00B500350803194D2F3508033E86000130A7
:102E6C0087001600010403194D2F3508053E860016
:102E7C00013087001600010403194D2F3508073E59
:102E8C0086000130870016000104031D502FB40189
:102E9C00B403512FB40134080800043040019800E9
:102EAC009A01333092000A30940004307E01CE0037
:102EBC001B30B800B901CF01BA01D0011530A00008
:102ECC007D014508C0391038C5004608C039113895
:102EDC00C6000F307E01A4001630A2007D014B0805
:102EEC00C0391338CB00080000304101B900003064
:102EFC00B8000030B7000030B60035083902031DA9
:102F0C00912F34083802031D912F33083702031D0B
:102F1C00912F3208360203180800C8300032890B92
:102F2C00942F01304101B6070030B73D0030B83D59
:102F3C000030B93D832F0030FB000030FA00003028
:102F4C00F9000030F800701CB32F7408F8077508EE
:102F5C00F93D7608FA3D7708FB3D0130F435F50D67
:102F6C00F60DF70D890BB42F0130F336F20CF10C82
:102F7C00F00C890BBB2F7308720471047004031DD1
:102F8C00A92F7B08F3007A08F2007908F100780881
:102F9C00F00008004101B800B901B90A340839023F
:102FAC000318080039083807B500350886000130C9
:102FBC0087000108B6003935FF3E3207B7003708E5
:102FCC00860087013608810039083307B5003508BB
:102FDC008600013087000108B60039353207B7008A
:102FEC00370886008701360881000130B5003508A6
:102FFC00B907D42F0034003477341634003400343D
:10300C0000340034003400343F341634003440347F
:10301C000234003440340934D034073400340034E2
:08302C00E834033400340034E1
:020000040001F9
:0A000E00EC3FFF3F9F3FFF3FFF3F25
:00000001FF
