:0400000080311B2808
:100008007E1480314E01961A8C1E0E2884310A24E3
:10001800803119280B1B991E19288F1E1928410198
:1000280061088A0060080A0080317E10090080316A
:100038001D284101843174248031E70084317524FE
:100048008031E800953084008330850020308600B8
:10005800013087001E3084314E248031F801F901C7
:10006800FA01A0308400003085003C3084315424EB
:1000780080313E30840001308500183084315424AA
:100088007E1040018331752B4101E40005304001A9
:10009800ED006D084101E20064088331532380318B
:1000A8004001ED006D084101E30063080319B5281C
:1000B800DD2864084001ED006D08C600C701C70AC5
:1000C800410164084001EE006E08C800D03082315A
:1000D800592280314001EF006F084101E3006308B5
:1000E800031DA128640886008701563001060319FC
:1000F8008B286408860087015730010603198B286E
:1001080064088600870158300106031DA128640889
:1001180082319F2280314001ED006D084101E300EA
:100128006308031DB82864088031DF20803140014E
:10013800ED006D084101E300B8280030F6000030FA
:10014800F5000030F4000A30F3006408073E86002A
:100158008701413F8A00403F0A0080310130410158
:10016800E2026208031D5D286208031DC128FE30F3
:100178004001ED006D084101E3006308031DDD281F
:100188006408283E8600870181016408263E8600AF
:10019800870181016408253E860087018101640882
:1001A800273E8600870181016408293E8600870171
:1001B8008101630808004001EC003E3086000130F0
:1001C800870053308400003085001830CF001600B7
:1001D8001A00CF0BEB286C08833153238031400180
:1001E800CF004F08EB006B08031D71295330CF0077
:1001F8004F08C6001830D0005008C7006C08D1005E
:100208005108C80088308231592280314001D2001B
:100218005208EB006B08031D71296C08093E860023
:1002280087015308C03F5408C13F6C080B3E860045
:1002380087015508C03F5608C13F6C080D3E86002F
:1002480087015708C03F5808C13F6C080F3E860019
:1002580087015908C03F5A08C13F6C08113E860003
:1002680087015B08C03F5C08C13F6C08133E8600ED
:1002780087015D08C03F5E08C13F6C08153E8600D7
:1002880087015F08C03F6008C13F6C08173E8600C1
:1002980087016108C03F6208C13F6C08193E8600AB
:1002A80087016308C03F6408C13F6C081B3E860095
:1002B80087016508C03F6608C13F6C081D3E86007F
:1002C80087016708C03F6808C13F6C081F3E860069
:1002D80087016908C03F6A08C13F6B0808004001F0
:1002E800B70005302502031C7D290430A700270824
:1002F800A50026088331532381314001A700270830
:10030800B6003608031D022A37080319022A2408F2
:100318000319022A25080319FD29240886008701E4
:100328000108A7002708AB002608023E86008701BF
:100338000108031DBA29B501250835020318BA2991
:1003480035083707A70027088600870101087F3985
:10035800A80035083707A90029088600870128085A
:1003680081000130A7002708B507A029023025021F
:10037800031CDA292B30A7002708F3002408A8005B
:100388002808F4002508A9002908F5003708823153
:10039800DA22813140012508A700A801A735A80D58
:1003A8002708FF3EB300FF30283DE0292508A700B5
:1003B800A8012708B3002808B400F301370886000D
:1003C80087010108A7002708F4002B30A800280897
:1003D800F5003308A9002908F60084311724813173
:1003E8004001AA002A08B60036080319042AFC307E
:1003F800FE29FD30A7002708B600042AB601B60377
:1004080036080800C8300032890B072A003040013E
:10041800C3000030C2000030C1000030C0002030EE
:1004280086000130870022308400003085001E30AD
:10043800A00016001A00A00B1D2A74088038A0001E
:100448002008A200C4017608013EA000003003186D
:100458000130A1002108803A803C031D352A20087C
:10046800440203183D2A01304001A0002008C407B7
:10047800272A4001C501760845020318572A45086E
:10048800013E223E860087010108A0004508750745
:10049800A100210886008701200881000130A00002
:1004A8002008C5073F2A400808004001CD00480839
:1004B8008331532382314001C9004908CE004E08D8
:1004C800031D9B2A460803199B2A4808023E8600FA
:1004D80087010108031D752A4D088038C90049089D
:1004E800CD00480886008701413FF3004D08C90048
:1004F8004908F4004608CA004A08F5004708CB0036
:100508004B08F6004808033E86008701413F8A00F1
:10051800403F0A0082314001CC004C08CE004E0812
:1005280003199D2AFC30C9004908CE009D2ACE0136
:10053800CE034E0808004001BE00E030B80038087D
:10054800BD00B630B8003808BB003E0883315323DD
:1005580082314001B8003808BC003C08031DD72A86
:100568003B30B8003808A400A501A50A3E08B90028
:100578003908A6003D308131732182314001BA002B
:100588003A08BC000030F6000030F5000030F400F6
:100598000230F3003E08073E86008701413F8A008B
:1005A800403F0A00823140013C080800F600F7018C
:1005B800F70A7508770203180800770876074001DC
:1005C800A0002008860087010108A1007735FF3EBA
:1005D8007307A20022088600870121088100770896
:1005E8007407A0002008860087010108A10077355C
:1005F8007307A200220886008701210881000130C4
:10060800A0002008F707DD2A400198019A0133303D
:1006180092000A30940004307E01CE001B30B800EE
:10062800B901CF01BA01D0011530A0007D014508FC
:10063800C0391038C5004608C0391138C6000F3017
:100648007E01A4001630A2007D014B08C039133882
:10065800CB00080042019D1C332B1D121D161908E2
:10066800F1007108F2007208F1007A08A03E8600D5
:100678008701710881000130F1007108FA077208DA
:10068800013EF1007108F0008431472408307A02F5
:100698000318FA010130F1007108F8070800F600A4
:1006A800760803196F2B7608033E8600870116002B
:1006B800010403196F2B7608053E86008701160092
:1006C800010403196F2B7608073E86008701160080
:1006D8000104031D722BF501F503732BF501750851
:1006E80008008331F82383318B170B178431712469
:1006F80083314101B301B4010630B5000230B600C0
:100708001730B7000430B8007630B9000430BA00AA
:10071800B2308031482083314101E5006508E600A8
:10072800942BFF3400340034003400340034003497
:100738000034003400340034003400340034003411
:100748000034003400340034003400340034003401
:1007580000340034003400340034003400345030A5
:100768004B019F009D019C011D084101DF004B01C9
:100778001C084101DE004E018C1296167730F300FA
:100788000430F40084315A2490304B019E00080054
:100798004E0199122E30F3000330F40084316024A6
:1007A800083042019F0090309D0024309E000830A0
:1007B8009B009C01FA01F901F8014E019916080005
:1007C80000340034CC340334003400342E34033481
:1007D80060340434003400340034003447340434C2
:1007E80000340034003400348431372483318331B9
:1007F8000823833184312D24833184313F2483318C
:100808008331B32383318331CC2308004E018C120A
:1008180041015F084B019D0041015E084B019C00AE
:1008280084312224080000304001A3000030A200D7
:100838000030A1000030A0002008080041015C0839
:100848005D04031908005D088A005C080A00843109
:100858000800603051018D008F0191010230930032
:100868009001920108004F019601970198019901A2
:100878009A019B010800013041019D009E019F01E2
:100888009B019C0108004E010F1E472C7008420175
:100898009A000800FE0012001E00FE0B4F2C0034C8
:1008A800640080010131890B552C00347408410122
:1008B800DD007308DC00080074084101E1007308DA
:1008C800E0000800D034073400340034E83403343E
:1008D800003400341034003407344B019E170800EC
:0808E800F434F53408000800A7
:020000040001F9
:0A000E00EC3FFF3F9F3FFF3FFF3F25
:00000001FF
