:0400000080311B2808
:100008007E1480314E01961A8C1E0E2884312424C9
:10001800803119280B1B991E19288F1E1928410198
:100028006B088A006A080A0080317E100900803156
:100038001D288431C2248031ED008431C3248031ED
:10004800EE00A33084008330850020308600013024
:1000580087001E308431A2248031F701F801F901AC
:10006800FA01FB015F308400003085000C308431D8
:10007800A8248031A03084000030850030308431DD
:10008800A82480313E308400013085001830843146
:10009800A8247E10400183310D2B4101E9003E3038
:1000A800860001308700D030840000308500183089
:1000B8004001D30016001A00D30B5E2841016908DD
:1000C8008331802380314001D30053084101E80087
:1000D8006808031DEA28D0304001D3005308CA003D
:1000E8001830D4005408CB00410169084001D500FC
:1000F8005508CC00883082315E2280314001D6001C
:1001080056084101E8006808031DEA286908093E05
:10011800860087015008C03F5108C13F69080B3E5F
:10012800860087015208C03F5308C13F69080D3E49
:10013800860087015408C03F5508C13F69080F3E33
:10014800860087015608C03F5708C13F6908113E1D
:10015800860087015808C03F5908C13F6908133E07
:10016800860087015A08C03F5B08C13F6908153EF1
:10017800860087015C08C03F5D08C13F6908173EDB
:10018800860087015E08C03F5F08C13F6908193EC5
:10019800860087016008C03F6108C13F69081B3EAF
:1001A800860087016208C03F6308C13F69081D3E99
:1001B800860087016408C03F6508C13F69081F3E83
:1001C800860087016608C03F6708C13F68080800C5
:1001D8004001BB0005302902031CF6280430AB009F
:1001E8002B08A9002A088331802380314001AB0005
:1001F8002B08BA003A08031D7B293B0803197B2901
:10020800280803197B292908031976292808860054
:1002180087010108AB002B08AF002A08023E8600C0
:1002280087010108031D3329B90129083902031878
:10023800332939083B07AB002B08860087010108E2
:100248007F39AC0039083B07AD002D0886008701CF
:100258002C0881000130AB002B08B907192902309E
:100268002902031C53292F30AB002B08A0002808B3
:10027800AC002C08A1002908AD002D08A2003B08FD
:100288008231DF22803140012908AB00AC01AB3557
:10029800AC0D2B08FF3EB700FF302C3D592929082B
:1002A800AB00AC012B08B7002C08B800A0013B0834
:1002B800860087010108AB002B08A1002F30AC0095
:1002C8002C08A2003708AD002D08A3008431612452
:1002D80080314001AE002E08BA003A0803197D2982
:1002E800FC307729FD30AB002B08BA007D29BA0114
:1002F800BA033A0808004001DC000530D700570867
:10030800DA005C088331802381314001D700570827
:10031800DB005B080319E329092A5C08D7005708A2
:10032800CA00CB01CB0A5C08D8005808CC00D030F2
:1003380082315E2281314001D9005908DB005B0817
:10034800031DCF295C088600870156300106031972
:10035800BB295C0886008701573001060319BB29B1
:100368005C088600870158300106031DCF295C0808
:100378008231A42281314001D7005708DB005B0895
:10038800031DE6295C088031512081314001D700E6
:100398005708DB00E6290030A3000030A200003037
:1003A800A1000A30A0005C08073E86008701413F93
:1003B8008A00403F0A00813101304001DA025A08C0
:1003C800031D91295A08031DED29FE30D70057084F
:1003D800DB005B08031D092A5C08283E86008701AC
:1003E80081015C08263E8600870181015C08253E64
:1003F8008600870181015C08273E8600870181010C
:100408005C08293E8600870181015B080800C83026
:100418000032890B0C2A00304001C7000030C600AA
:100428000030C5000030C40020308600013087004D
:1004380026308400003085001E30A40016001A0003
:10044800A40B222A21088038A4002408A600C80189
:100458002308013EA400003003180130A500250838
:10046800803A803C031D3A2A240848020318422A8D
:1004780001304001A4002408C8072C2A4001C90102
:100488002308490203185C2A4908013E263E8600D3
:1004980087010108A40049082207A500250886004D
:1004A8008701240881000130A4002408C907442AD0
:1004B800440808004001D1004C0883318023823170
:1004C8004001CD004D08D2005208031DA02A4A0859
:1004D8000319A02A4C08023E860087010108031D63
:1004E8007A2A51088038CD004D08D1004C08860082
:1004F8008701413FA0005108CD004D08A1004A08DE
:10050800CE004E08A2004B08CF004F08A3004C08AD
:10051800033E86008701413F8A00403F0A0082313E
:100528004001D0005008D20052080319A22AFC301A
:10053800CD004D08D200A22AD201D20352080800E9
:100548004001C200E030BC003C08C100B630BC002D
:100558003C08BF0042088331802382314001BC003F
:100568003C08C0004008031DDC2A3F30BC003C08A2
:10057800A800A901A90A4208BD003D08AA00413007
:100588008031EC2082314001BE003E08C0000030BE
:10059800A3000030A2000030A1000230A0004208F1
:1005A800073E86008701413F8A00403F0A008231AA
:1005B8004001400808004001A600A701A70A220838
:1005C80027020318080027082607A3002308860027
:1005D80087010108A4002735FF3E2007A50025084C
:1005E800860087012408810027082107A300230823
:1005F800860087010108A40027352007A5002508E3
:1006080086008701240881000130A3002308A7077A
:10061800E32A84314F2483318B170B17F3304001C1
:10062800A0000330A1008431AE2483318431BF247B
:1006380083314101A701A8010B30A9000230AA00AB
:100648006130AB000430AC00C430AD000430AE0003
:10065800A63081317F2183314001DD005D08DE0055
:10066800342B400198019A01333092000A309400EB
:1006780004307E01CE001B30B800B901CF01BA01A9
:10068800D0011530A0007D014508C0391038C500DB
:100698004608C0391138C6000F307E01A400163054
:1006A800A2007D014B08C0391338CB000800420175
:1006B8009D1C602B1D121D161908F1007108F2000F
:1006C8007208F1007B085F3E86008701710881008F
:1006D8000130F1007108FB077208013EF100710852
:1006E800F00084319B2408307B020318FB010130A1
:1006F800F1007108F90708004001A3002308031955
:100708009D2B2308033E8600870116000104031968
:100718009D2B2308053E8600870116000104031956
:100728009D2B2308073E8600870116000104031D40
:10073800A02BA201A203A12BA20122080800FF34CA
:100748000034003400340034003400340034003401
:1007580000340034003400340034003400340034F1
:1007680000340034003400340034003400340034E1
:100778000034003400340034003451304B019F0001
:100788003C309D00B0309C001D08FD001C08FC009A
:100798004E018C129616C5304001A0000430A1000D
:1007A8008431AE2490304B019E0008004E0199120E
:1007B8005B304001A0000330A1008431812408305F
:1007C80042019F0090309D0024309E0008309B001D
:1007D8009C01FB01FA01F9014E019916080020302D
:1007E80040018E06053084310C2483317108F600EF
:1007F8007008F5007608F4007408F00084319B2432
:1008080083317508F4007408F00084319B240800D3
:10081800F3007308F200F20DF20D41011D08720693
:10082800033972069D001D14003200320000410198
:100838009D149D181D2C1C08F1001B08F0000800D1
:100848004E018C127D084B019D007C089C000130F4
:10085800F7070030F83D003078020A3003197702B4
:10086800031C080084316C24F701F80108000034E7
:100878000034DA340334003400345B340334813414
:10088800043400340034003400349B34043400341D
:100898000034003400348431932484318331352387
:1008A800843184317724843184318A2484318331BA
:1008B800C12384318331DA23080000304001A700C6
:1008C8000030A6000030A5000030A400240808006D
:1008D80040016B086C04031908006C088A006B0857
:1008E8000A0084310800603051018D008F019101A8
:1008F8000230930090019201080040012108410153
:10090800EB00400120084101EA00080001304101E4
:100918009D00E0309E009F019B019C0108004F0153
:1009280096019701980199019A019B0108004E01CF
:100938000F1E9B2C700842019A000800FE0012004E
:100948001E00FE0BA32C0034640080010131890BCA
:10095800A92C003440012108EC002008EB00080015
:10096800D034073400340034E8340334003400341D
:100978001034003407344B019E170800F434F53462
:04098800080008005B
:020000040001F9
:0A000E00EC3FFF3F9F3FFF3FFF3F25
:00000001FF
