:08000000803102288731DC2F5A
:1008B4000800F434F534640080010131890B5E2CA6
:1008C4000034FE0012001E00FE0B642C00340130C4
:1008D40041019D009E019F019B019C0108004F0165
:1008E40096019701980199019A019B0108006230D1
:1008F40051018D008F01910102309300900192010A
:1009040008000030F7000030F6000030F500003039
:10091400F40074080800083042019F0090309D00E4
:1009240024309E0015309B009C0108008431712402
:1009340084318531022584318431792484318431B0
:100944006924843184318D240800843198248431CD
:100954004101BF01C001D630C1000530C20083305F
:10096400C3000430C4005A30C5000430C600BE3091
:10097400863129264001EA006A08EB00803102280A
:10098400FF340034003400340034003400340034C4
:1009940000340034003400340034003400340034B3
:1009A40000340034003400340034003400340034A3
:1009B400003400340034003400340034F30073088D
:1009C4000319FC2C7308033E8600870116000104FA
:1009D4000319FC2C7308053E8600870116000104E8
:1009E4000319FC2C7308073E8600870116000104D6
:1009F400031DFF2CF201F203002DF201720808001E
:100A0400400198019A013730920028309400263032
:100A14007E01CE001B30B800B901CF01BA01D0016C
:100A24001530A0007D014608C0390238C6004508CB
:100A3400C0391038C50016307E01A1000F30A40063
:100A44007D014B08C0391338CB000800F600F701CC
:100A5400F70A720877020318080077087607F3008C
:100A64007308860087010108F4007735FF3E70079C
:100A7400F5007508860087017408810077087107FE
:100A8400F3007308860087010108F40077357007C6
:100A9400F500750886008701740881000130F300B1
:100AA4007308F7072B2D4001B400E030FB007B08EE
:100AB400B300B630FB007B08B10034088431E02475
:100AC4008531FB007B084001B2003208031D8D2DE7
:100AD4003130FB007B08F800F901F90A3408FC0006
:100AE4007C08FA0033308631B5268531FD007D0857
:100AF4004001B2000030F3000030F2000030F10099
:100B04000230F0003408073E86008701413F8A0026
:100B1400403F0A0085314001320808004001C4000A
:100B240078088431E0248531F90079084001C50052
:100B34004508031DD22D76080319D22D7808023EEC
:100B4400860087010108031DAC2D44088038F90094
:100B54007908C400780886008701413FF000440802
:100B6400F9007908F1007608FA007A08F2007708AB
:100B7400FB007B08F3007808033E86008701413FB1
:100B84008A00403F0A008531FC007C084001C50012
:100B940045080319D42DFC30F9007908C500D42D7B
:100BA400C501C503450808005330890BD72D000043
:100BB40000304001C1000030C0000030BF000030F0
:100BC400BE002030860001308700203084000030D1
:100BD40085001E30F40016001A00F40BED2D710888
:100BE4008038F4007408A000C2017308013EF400C8
:100BF400003003180130F5007508803A803C031D6D
:100C0400052E7408420203180D2E0130F4007408F6
:100C14004001C207F72D4001C301730843020318C2
:100C2400272E4308013E203E860087010108F40078
:100C340043087207F500750886008701740881006F
:100C44000130F4007408C3070F2E3E080800400169
:100C5400E9000530E4006408E70069088431E02411
:100C640086314001E4006408E800680803198D2E09
:100C7400B32E6908E4006408F600F701F70A69086E
:100C8400E5006508F800D0308531902586314001B3
:100C9400E6006608E8006808031D792E69088600E6
:100CA4008701563001060319652E690886008701FD
:100CB400573001060319652E6908860087015830EC
:100CC4000106031D792E69088531552586314001B9
:100CD400E4006408E8006808031D902E6908873161
:100CE400482786314001E4006408E800902E003073
:100CF400F3000030F2000030F1000A30F00069081F
:100D0400073E86008701413F8A00403F0A00863142
:100D140001304001E7026708031D3B2E6708031DED
:100D2400972EFE30E4006408E8006808031DB32E23
:100D34006908283E8600870181016908263E8600ED
:100D4400870181016908253E8600870181016908C0
:100D5400273E8600870181016908293E86008701B4
:100D64008101680808004001B00005307902031CC5
:100D7400BF2E0430A0002008F9007A088431E02452
:100D840086314001A0002008AF002F08031D442F26
:100D940030080319442F78080319442F79080319DC
:100DA4003F2F7808860087010108A0002008A400CE
:100DB4007A08023E860087010108031DFC2EAE015D
:100DC40079082E020318FC2E2E083007A0002008F4
:100DD4008600870101087F39A1002E083007A20090
:100DE400220886008701210881000130A000200824
:100DF400AE07E22E02307902031C1C2F2430A0001F
:100E04002008F0007808A1002108F1007908A20068
:100E14002208F200300885312825863179084001FE
:100E2400A000A101A035A10D2008FF3EAC00FF30B9
:100E3400213D222F7908A000A1012008AC0021083F
:100E4400AD00F0013008860087010108A0002008E9
:100E5400F1002430A1002108F2002C08A20022088D
:100E6400F3008431832486314001A3002308AF00BA
:100E74002F080319462FFC30402FFD30A000200816
:100E8400AF00462FAF01AF032F0808004001E30075
:100E9400A0308600003087004A308400003085008E
:100EA4001830C60016001A00C60B542F630884318C
:100EB400E02487314001C6004608E2006208031DB1
:100EC400DA2F4A30C6004608F6001830C700470833
:100ED400F7006308C8004808F80088308531902579
:100EE40087314001C9004908E2006208031DDA2F76
:100EF4006308093E860087014A08C03F4B08C13F8A
:100F040063080B3E860087014C08C03F4D08C13F73
:100F140063080D3E860087014E08C03F4F08C13F5D
:100F240063080F3E860087015008C03F5108C13F47
:100F34006308113E860087015208C03F5308C13F31
:100F44006308133E860087015408C03F5508C13F1B
:100F54006308153E860087015608C03F5708C13F05
:100F64006308173E860087015808C03F5908C13FEF
:100F74006308193E860087015A08C03F5B08C13FD9
:100F840063081B3E860087015C08C03F5D08C13FC3
:100F940063081D3E860087015E08C03F5F08C13FAD
:100FA40063081F3E860087016008C03F6108C13F97
:100FB40062080800410184315B248731E8008431F0
:100FC4005C248731E900C2308400843085002030FD
:100FD4008600013087001E3084316324873140014C
:100FE400EC01ED01EE01EF01A0308400003085003A
:100FF400483084315D2440018431A72C003400340E
:101004008D340434003400340034003400340034AB
:1010140000340034D034073400340034E83403346A
:0A10240000340034003400340134BD
:020000040001F9
:0A000E00EC3FFF3F9F3FFF3FFF3F25
:00000001FF
